{
  "contractName": "DCabs",
  "abi": [
    {
      "payable": true,
      "stateMutability": "payable",
      "type": "fallback"
    },
    {
      "constant": true,
      "inputs": [],
      "name": "auditor",
      "outputs": [
        {
          "internalType": "address",
          "name": "",
          "type": "address"
        }
      ],
      "payable": false,
      "stateMutability": "view",
      "type": "function"
    },
    {
      "constant": false,
      "inputs": [
        {
          "internalType": "address",
          "name": "driverAddr",
          "type": "address"
        },
        {
          "internalType": "uint256",
          "name": "license",
          "type": "uint256"
        }
      ],
      "name": "registerDriver",
      "outputs": [],
      "payable": false,
      "stateMutability": "nonpayable",
      "type": "function"
    },
    {
      "constant": false,
      "inputs": [
        {
          "internalType": "bytes32",
          "name": "encryptedPickup",
          "type": "bytes32"
        },
        {
          "internalType": "bytes32",
          "name": "encryptedDest",
          "type": "bytes32"
        },
        {
          "internalType": "address",
          "name": "driverRequested",
          "type": "address"
        }
      ],
      "name": "setPickup",
      "outputs": [],
      "payable": true,
      "stateMutability": "payable",
      "type": "function"
    },
    {
      "constant": false,
      "inputs": [
        {
          "internalType": "bytes32",
          "name": "driverPhoneNumEncrpyted",
          "type": "bytes32"
        },
        {
          "internalType": "address payable",
          "name": "customer",
          "type": "address"
        }
      ],
      "name": "acceptTrip",
      "outputs": [
        {
          "internalType": "uint256",
          "name": "",
          "type": "uint256"
        }
      ],
      "payable": false,
      "stateMutability": "nonpayable",
      "type": "function"
    },
    {
      "constant": false,
      "inputs": [
        {
          "internalType": "address",
          "name": "driverRequested",
          "type": "address"
        }
      ],
      "name": "cancelRequest",
      "outputs": [],
      "payable": false,
      "stateMutability": "nonpayable",
      "type": "function"
    },
    {
      "constant": false,
      "inputs": [
        {
          "internalType": "uint256",
          "name": "otp",
          "type": "uint256"
        },
        {
          "internalType": "uint256",
          "name": "rating",
          "type": "uint256"
        }
      ],
      "name": "endTrip",
      "outputs": [],
      "payable": false,
      "stateMutability": "nonpayable",
      "type": "function"
    },
    {
      "constant": false,
      "inputs": [
        {
          "internalType": "uint256",
          "name": "otp",
          "type": "uint256"
        }
      ],
      "name": "cancelTrip",
      "outputs": [],
      "payable": false,
      "stateMutability": "nonpayable",
      "type": "function"
    }
  ],
  "bytecode": "0x6080604052600060065534801561001557600080fd5b50611df9806100256000396000f3fe6080604052600436106100705760003560e01c80633ec045a61161004e5780633ec045a614610177578063a9ef4492146101ce578063af98f75714610226578063c6bbdce81461027757610070565b80631a97ed4f146100725780631dca2c7e146100cd57806325ca5e5e14610108575b005b34801561007e57600080fd5b506100cb6004803603604081101561009557600080fd5b81019080803573ffffffffffffffffffffffffffffffffffffffff169060200190929190803590602001909291905050506102bc565b005b3480156100d957600080fd5b50610106600480360360208110156100f057600080fd5b810190808035906020019092919050505061048f565b005b34801561011457600080fd5b506101616004803603604081101561012b57600080fd5b8101908080359060200190929190803573ffffffffffffffffffffffffffffffffffffffff1690602001909291905050506108ca565b6040518082815260200191505060405180910390f35b34801561018357600080fd5b5061018c610ccf565b604051808273ffffffffffffffffffffffffffffffffffffffff1673ffffffffffffffffffffffffffffffffffffffff16815260200191505060405180910390f35b610224600480360360608110156101e457600080fd5b810190808035906020019092919080359060200190929190803573ffffffffffffffffffffffffffffffffffffffff169060200190929190505050610cf4565b005b34801561023257600080fd5b506102756004803603602081101561024957600080fd5b81019080803573ffffffffffffffffffffffffffffffffffffffff1690602001909291905050506110a6565b005b34801561028357600080fd5b506102ba6004803603604081101561029a57600080fd5b810190808035906020019092919080359060200190929190505050611311565b005b6000809054906101000a900473ffffffffffffffffffffffffffffffffffffffff1673ffffffffffffffffffffffffffffffffffffffff163373ffffffffffffffffffffffffffffffffffffffff161461031557600080fd5b600260008373ffffffffffffffffffffffffffffffffffffffff1673ffffffffffffffffffffffffffffffffffffffff16815260200190815260200160002060030160009054906101000a900460ff16156103d8576040517f08c379a000000000000000000000000000000000000000000000000000000000815260040180806020018281038252601d8152602001807f4472697665722077617320616c7265616479207265676973746572656400000081525060200191505060405180910390fd5b80600260008473ffffffffffffffffffffffffffffffffffffffff1673ffffffffffffffffffffffffffffffffffffffff168152602001908152602001600020600001819055506001600260008473ffffffffffffffffffffffffffffffffffffffff1673ffffffffffffffffffffffffffffffffffffffff16815260200190815260200160002060030160006101000a81548160ff02191690831515021790555060016006600082825401925050819055505050565b3373ffffffffffffffffffffffffffffffffffffffff166004600083815260200190815260200160002060050160009054906101000a900473ffffffffffffffffffffffffffffffffffffffff1673ffffffffffffffffffffffffffffffffffffffff16148061056057503373ffffffffffffffffffffffffffffffffffffffff166004600083815260200190815260200160002060040160009054906101000a900473ffffffffffffffffffffffffffffffffffffffff1673ffffffffffffffffffffffffffffffffffffffff16145b6105d2576040517f08c379a000000000000000000000000000000000000000000000000000000000815260040180806020018281038252601b8152602001807f556e617574686f726973656420746f2063616e63656c2074726970000000000081525060200191505060405180910390fd5b4260046000838152602001908152602001600020600301819055506004600082815260200190815260200160002060050160009054906101000a900473ffffffffffffffffffffffffffffffffffffffff1673ffffffffffffffffffffffffffffffffffffffff163373ffffffffffffffffffffffffffffffffffffffff1614156106ac5761068d600460008381526020019081526020016000206002015460046000848152602001908152602001600020600301546119e2565b60046000838152602001908152602001600020600601819055506106c9565b600060046000838152602001908152602001600020600601819055505b6004600082815260200190815260200160002060040160009054906101000a900473ffffffffffffffffffffffffffffffffffffffff1673ffffffffffffffffffffffffffffffffffffffff166108fc60046000848152602001908152602001600020600601549081150290604051600060405180830381858888f1935050505015801561075b573d6000803e3d6000fd5b506004600082815260200190815260200160002060050160009054906101000a900473ffffffffffffffffffffffffffffffffffffffff1673ffffffffffffffffffffffffffffffffffffffff166108fc6004600084815260200190815260200160002060060154600160006004600087815260200190815260200160002060050160009054906101000a900473ffffffffffffffffffffffffffffffffffffffff1673ffffffffffffffffffffffffffffffffffffffff1673ffffffffffffffffffffffffffffffffffffffff16815260200190815260200160002060000154039081150290604051600060405180830381858888f19350505050158015610868573d6000803e3d6000fd5b5060016004600083815260200190815260200160002060090160006101000a81548160ff02191690831515021790555060016004600083815260200190815260200160002060090160016101000a81548160ff02191690831515021790555050565b6000600260003373ffffffffffffffffffffffffffffffffffffffff1673ffffffffffffffffffffffffffffffffffffffff16815260200190815260200160002060030160009054906101000a900460ff1661098e576040517f08c379a00000000000000000000000000000000000000000000000000000000081526004018080602001828103825260148152602001807f44726976657220646f65736e277420657869737400000000000000000000000081525060200191505060405180910390fd5b600360003373ffffffffffffffffffffffffffffffffffffffff1673ffffffffffffffffffffffffffffffffffffffff16815260200190815260200160002060008373ffffffffffffffffffffffffffffffffffffffff1673ffffffffffffffffffffffffffffffffffffffff16815260200190815260200160002060000160009054906101000a900460ff16610a8d576040517f08c379a00000000000000000000000000000000000000000000000000000000081526004018080602001828103825260108152602001807f496e76616c696420637573746f6d65720000000000000000000000000000000081525060200191505060405180910390fd5b6001600360003373ffffffffffffffffffffffffffffffffffffffff1673ffffffffffffffffffffffffffffffffffffffff16815260200190815260200160002060008473ffffffffffffffffffffffffffffffffffffffff1673ffffffffffffffffffffffffffffffffffffffff16815260200190815260200160002060040160006101000a81548160ff02191690831515021790555082600360003373ffffffffffffffffffffffffffffffffffffffff1673ffffffffffffffffffffffffffffffffffffffff16815260200190815260200160002060008473ffffffffffffffffffffffffffffffffffffffff1673ffffffffffffffffffffffffffffffffffffffff16815260200190815260200160002060030181905550610cb63383600360003373ffffffffffffffffffffffffffffffffffffffff1673ffffffffffffffffffffffffffffffffffffffff16815260200190815260200160002060008673ffffffffffffffffffffffffffffffffffffffff1673ffffffffffffffffffffffffffffffffffffffff16815260200190815260200160002060010154600360003373ffffffffffffffffffffffffffffffffffffffff1673ffffffffffffffffffffffffffffffffffffffff16815260200190815260200160002060008773ffffffffffffffffffffffffffffffffffffffff1673ffffffffffffffffffffffffffffffffffffffff16815260200190815260200160002060020154600554611a09565b6005600081548092919060010191905055905092915050565b6000809054906101000a900473ffffffffffffffffffffffffffffffffffffffff1681565b670de0b6b3a7640000341015610d72576040517f08c379a00000000000000000000000000000000000000000000000000000000081526004018080602001828103825260188152602001807f50415920555020544845204d414e4441544f525920464545000000000000000081525060200191505060405180910390fd5b600160003373ffffffffffffffffffffffffffffffffffffffff1673ffffffffffffffffffffffffffffffffffffffff16815260200190815260200160002060020160009054906101000a900460ff16610eb1576000600160003373ffffffffffffffffffffffffffffffffffffffff1673ffffffffffffffffffffffffffffffffffffffff168152602001908152602001600020600001819055506000600160003373ffffffffffffffffffffffffffffffffffffffff1673ffffffffffffffffffffffffffffffffffffffff1681526020019081526020016000206003018190555060018060003373ffffffffffffffffffffffffffffffffffffffff1673ffffffffffffffffffffffffffffffffffffffff16815260200190815260200160002060020160006101000a81548160ff0219169083151502179055505b34600160003373ffffffffffffffffffffffffffffffffffffffff1673ffffffffffffffffffffffffffffffffffffffff168152602001908152602001600020600001600082825401925050819055506001600360008373ffffffffffffffffffffffffffffffffffffffff1673ffffffffffffffffffffffffffffffffffffffff16815260200190815260200160002060003373ffffffffffffffffffffffffffffffffffffffff1673ffffffffffffffffffffffffffffffffffffffff16815260200190815260200160002060000160006101000a81548160ff02191690831515021790555082600360008373ffffffffffffffffffffffffffffffffffffffff1673ffffffffffffffffffffffffffffffffffffffff16815260200190815260200160002060003373ffffffffffffffffffffffffffffffffffffffff1673ffffffffffffffffffffffffffffffffffffffff1681526020019081526020016000206001018190555081600360008373ffffffffffffffffffffffffffffffffffffffff1673ffffffffffffffffffffffffffffffffffffffff16815260200190815260200160002060003373ffffffffffffffffffffffffffffffffffffffff1673ffffffffffffffffffffffffffffffffffffffff16815260200190815260200160002060020181905550505050565b600360008273ffffffffffffffffffffffffffffffffffffffff1673ffffffffffffffffffffffffffffffffffffffff16815260200190815260200160002060003373ffffffffffffffffffffffffffffffffffffffff1673ffffffffffffffffffffffffffffffffffffffff16815260200190815260200160002060000160009054906101000a900460ff166111a5576040517f08c379a00000000000000000000000000000000000000000000000000000000081526004018080602001828103825260188152602001807f596f7520686176656e277420626f6f6b6564206120636162000000000000000081525060200191505060405180910390fd5b6000600360008373ffffffffffffffffffffffffffffffffffffffff1673ffffffffffffffffffffffffffffffffffffffff16815260200190815260200160002060003373ffffffffffffffffffffffffffffffffffffffff1673ffffffffffffffffffffffffffffffffffffffff16815260200190815260200160002060000160006101000a81548160ff0219169083151502179055503373ffffffffffffffffffffffffffffffffffffffff166108fc600160003373ffffffffffffffffffffffffffffffffffffffff1673ffffffffffffffffffffffffffffffffffffffff168152602001908152602001600020600001549081150290604051600060405180830381858888f193505050501580156112c5573d6000803e3d6000fd5b506000600160003373ffffffffffffffffffffffffffffffffffffffff1673ffffffffffffffffffffffffffffffffffffffff1681526020019081526020016000206000018190555050565b6004600083815260200190815260200160002060090160009054906101000a900460ff16158061136257506004600083815260200190815260200160002060090160019054906101000a900460ff16155b6113d4576040517f08c379a00000000000000000000000000000000000000000000000000000000081526004018080602001828103825260148152602001807f5472697020697320616c726561647920646f6e6500000000000000000000000081525060200191505060405180910390fd5b3373ffffffffffffffffffffffffffffffffffffffff166004600084815260200190815260200160002060050160009054906101000a900473ffffffffffffffffffffffffffffffffffffffff1673ffffffffffffffffffffffffffffffffffffffff1614806114a557503373ffffffffffffffffffffffffffffffffffffffff166004600084815260200190815260200160002060040160009054906101000a900473ffffffffffffffffffffffffffffffffffffffff1673ffffffffffffffffffffffffffffffffffffffff16145b611517576040517f08c379a00000000000000000000000000000000000000000000000000000000081526004018080602001828103825260188152602001807f556e617574686f726973656420746f20656e642074726970000000000000000081525060200191505060405180910390fd5b6004600083815260200190815260200160002060050160009054906101000a900473ffffffffffffffffffffffffffffffffffffffff1673ffffffffffffffffffffffffffffffffffffffff163373ffffffffffffffffffffffffffffffffffffffff161480156115a957506004600083815260200190815260200160002060090160009054906101000a900460ff16155b1561165957611625816004600085815260200190815260200160002060040160009054906101000a900473ffffffffffffffffffffffffffffffffffffffff166004600086815260200190815260200160002060050160009054906101000a900473ffffffffffffffffffffffffffffffffffffffff16611b0b565b60016004600084815260200190815260200160002060090160006101000a81548160ff021916908315150217905550611689565b60016004600084815260200190815260200160002060090160016101000a81548160ff0219169083151502179055505b6004600083815260200190815260200160002060090160019054906101000a900460ff1680156116d957506004600083815260200190815260200160002060090160009054906101000a900460ff165b156119de57611714600460008481526020019081526020016000206002015460046000858152602001908152602001600020600301546119e2565b60046000848152602001908152602001600020600601819055506004600083815260200190815260200160002060040160009054906101000a900473ffffffffffffffffffffffffffffffffffffffff1673ffffffffffffffffffffffffffffffffffffffff166108fc60046000858152602001908152602001600020600601549081150290604051600060405180830381858888f193505050501580156117c0573d6000803e3d6000fd5b506004600083815260200190815260200160002060050160009054906101000a900473ffffffffffffffffffffffffffffffffffffffff1673ffffffffffffffffffffffffffffffffffffffff166108fc6004600085815260200190815260200160002060060154600160006004600088815260200190815260200160002060050160009054906101000a900473ffffffffffffffffffffffffffffffffffffffff1673ffffffffffffffffffffffffffffffffffffffff1673ffffffffffffffffffffffffffffffffffffffff16815260200190815260200160002060000154039081150290604051600060405180830381858888f193505050501580156118cd573d6000803e3d6000fd5b506000600160006004600086815260200190815260200160002060050160009054906101000a900473ffffffffffffffffffffffffffffffffffffffff1673ffffffffffffffffffffffffffffffffffffffff1673ffffffffffffffffffffffffffffffffffffffff168152602001908152602001600020600001819055504260046000848152602001908152602001600020600301819055506119dd6004600084815260200190815260200160002060050160009054906101000a900473ffffffffffffffffffffffffffffffffffffffff166004600085815260200190815260200160002060040160009054906101000a900473ffffffffffffffffffffffffffffffffffffffff16611c38565b5b5050565b600080620186a0905060006103e89050600085850390508181028301935050505092915050565b826004600083815260200190815260200160002060000181905550816004600083815260200190815260200160002060010181905550846004600083815260200190815260200160002060040160006101000a81548173ffffffffffffffffffffffffffffffffffffffff021916908373ffffffffffffffffffffffffffffffffffffffff160217905550836004600083815260200190815260200160002060050160006101000a81548173ffffffffffffffffffffffffffffffffffffffff021916908373ffffffffffffffffffffffffffffffffffffffff1602179055504260046000838152602001908152602001600020600201819055505050505050565b60058311158015611b1c5750600083115b611b8e576040517f08c379a000000000000000000000000000000000000000000000000000000000815260040180806020018281038252600e8152602001807f496e76616c696420526174696e6700000000000000000000000000000000000081525060200191505060405180910390fd5b6000600654600160008573ffffffffffffffffffffffffffffffffffffffff1673ffffffffffffffffffffffffffffffffffffffff1681526020019081526020016000206003015481611bdd57fe5b049050808402600260008473ffffffffffffffffffffffffffffffffffffffff1673ffffffffffffffffffffffffffffffffffffffff1681526020019081526020016000206001016000828254019250508190555050505050565b60011515600160008473ffffffffffffffffffffffffffffffffffffffff1673ffffffffffffffffffffffffffffffffffffffff16815260200190815260200160002060040160008373ffffffffffffffffffffffffffffffffffffffff1673ffffffffffffffffffffffffffffffffffffffff16815260200190815260200160002060009054906101000a900460ff1615151415611cd657611dc0565b60018060008473ffffffffffffffffffffffffffffffffffffffff1673ffffffffffffffffffffffffffffffffffffffff16815260200190815260200160002060040160008373ffffffffffffffffffffffffffffffffffffffff1673ffffffffffffffffffffffffffffffffffffffff16815260200190815260200160002060006101000a81548160ff021916908315150217905550600160008373ffffffffffffffffffffffffffffffffffffffff1673ffffffffffffffffffffffffffffffffffffffff168152602001908152602001600020600301600081548092919060010191905055505b505056fea265627a7a72315820b406d1c883b10562cf7b55e0a89e417fed14ff1cf0549679f248746364ff518e64736f6c63430005100032",
  "source": "pragma solidity ^0.5.10;\n\ncontract DCabs {\n    \n    address public auditor; //!< Person who authorises the registration of a cab driver into the system\n    \n    //structure that stores trip data\n    struct Trip {\n        bytes32 pickupHash; //!< Hash of the pickup address\n        bytes32 destHash;   //!< Hash of the destination address \n        \n        uint256 startTime; //!< Time of trip start\n        uint256 endTime; //!< Time of trip end\n\n        address payable driverAddr;   //!< Wallet address of the driver involved\n        address payable customerAddr; //!< Wallet address of the customer involved\n        \n        uint256 price;           //!< Expense of the trip\n        uint rating;          //!< Rating of the \n        string comments;      //!< Customer comments of the ride\n        bool customerEnded;   //!< Whether the customer is ready to end the trip\n        bool driverEnded;     //!< Whether the driver is ready to end the trip\n    }\n    \n    //!< structure that the customer pushes onto the blockchain to make a pickup\n    //!< request to a particular driver\n    \n    struct TripRequest {\n        bool requestMade; //!< Whether a customer has made this request\n        bytes32 encryptedPickup; //!< pickup location encrypted with the PubKey of the requsted driver \n        bytes32 encryptedDest; //!< pickup location encrypted with the PubKey of the requsted driver \n        bytes32 driverPhoneNumEncrpyted; //!< phone number of driver encrpyted with the customer's key\n        bool accepted;           //!< Boolean variable that determines whether the driver has accepted the request\n    }\n    \n    //!< Structure that stores the details of drivers in the system\n    \n    struct Driver{\n        uint driverLicense;     //!< A verifiable hash of the driver's license\n        uint reputation;        //!< Reputation score of the driver\n        Trip[] driverTrips;     //!< List of all trips undertaken by the driver \n        bool registered;        //!< A boolean variable that determines whether the driver is registered or not\n    }\n    \n    //!< Structure that stores the details of a customer\n    \n    struct Customer{\n        uint paid;              //!< The amount of money the customer has deposited in the contract\n        Trip[] customerTrips;   //!< List of all trips embarked on by the customer\n        bool exists;            //!< Whether this customer has used the app before\n        uint nUniqueDrivers;     //!< Number of unique cab drivers the customer has ridden with\n        mapping(address => bool) uniqueDriversMap; //!< A hashmap to determine whether a driver has ridden with the customer before \n    }\n    \n    mapping(address => Customer) customers;       //!< Mapping b/w a customer profile and his wallet address\n    mapping(address => Driver) drivers;           //!< Mapping b/w a driver profile and his wallet address\n    mapping(address => mapping(address => TripRequest)) activeTrips;  //!< Mapping b/w a driver address and a TripRequest object (corresponding to an ongoing trip)\n    mapping(uint => Trip) currentTrip;            //!< Mapping b/w an OTP and a trip object\n    uint cur;                                     //!< Variable storing most recent OTP\n    uint nDrivers = 0;\n\n    // Function to register a driver into the system\n    function registerDriver (address driverAddr, uint license) public{\n        require(msg.sender == auditor);\n        require(!drivers[driverAddr].registered, \"Driver was already registered\");\n        drivers[driverAddr].driverLicense = license;\n        drivers[driverAddr].registered = true;\n        nDrivers += 1;\n    }\n    \n    // Function to send a pickup request to a particular driver and pay a flat fee amount\n    function setPickup(bytes32 encryptedPickup, bytes32 encryptedDest, address driverRequested) public payable{\n        require(msg.value >= 1 ether, \"PAY UP THE MANDATORY FEE\");\n        if(!customers[msg.sender].exists){\n            customers[msg.sender].paid = 0;\n            customers[msg.sender].nUniqueDrivers = 0;\n            customers[msg.sender].exists = true;\n        }\n        customers[msg.sender].paid += msg.value;\n        activeTrips[driverRequested][msg.sender].requestMade = true;\n        activeTrips[driverRequested][msg.sender].encryptedPickup = encryptedPickup;\n        activeTrips[driverRequested][msg.sender].encryptedDest = encryptedDest;\n    }\n\n    \n    // Function for driver to accept the trip\n    function acceptTrip(bytes32 driverPhoneNumEncrpyted, address payable customer) public returns(uint) {\n        require(drivers[msg.sender].registered, \"Driver doesn't exist\");\n        require(activeTrips[msg.sender][customer].requestMade, \"Invalid customer\");\n        activeTrips[msg.sender][customer].accepted = true;\n        activeTrips[msg.sender][customer].driverPhoneNumEncrpyted = driverPhoneNumEncrpyted;\n        enterTripDetails(msg.sender, customer, activeTrips[msg.sender][customer].encryptedPickup, activeTrips[msg.sender][customer].encryptedDest, cur);\n        return cur++;\n    }\n    \n    // Function to populate the currentTrip mapping while confirming a ride\n    function enterTripDetails(address payable dAddr, address payable cAddr, bytes32 pcHash, bytes32 dHash, uint otp) internal{\n        currentTrip[otp].pickupHash = pcHash;\n        currentTrip[otp].destHash = dHash;\n        currentTrip[otp].driverAddr = dAddr;\n        currentTrip[otp].customerAddr = cAddr;\n        currentTrip[otp].startTime = now;\n    }\n    \n    // Customer cancels the trip request.\n    function cancelRequest(address driverRequested) public{\n        require(activeTrips[driverRequested][msg.sender].requestMade, \"You haven't booked a cab\");\n        activeTrips[driverRequested][msg.sender].requestMade = false;\n        msg.sender.transfer(customers[msg.sender].paid);\n        customers[msg.sender].paid = 0;\n    }\n    \n    // Linear function to get price based on time\n    function getPrice(uint256 start, uint256 end) pure internal returns (uint256){\n        uint256 flat = 100000;\n        uint256 scale = 1000;\n        uint256 dur = end - start;\n        return flat + dur*scale;\n    }\n\n    // Function to end the trip, called by driver and customer\n    function endTrip(uint otp, uint rating) public{\n        require(!currentTrip[otp].customerEnded || !currentTrip[otp].driverEnded, \"Trip is already done\");\n        require(currentTrip[otp].customerAddr == msg.sender || currentTrip[otp].driverAddr == msg.sender, \"Unauthorised to end trip\");\n        \n        // Customer has ended the trip from his/her side  (Update the reputation of the driver)\n        \n        if(msg.sender == currentTrip[otp].customerAddr && !currentTrip[otp].customerEnded){\n            updateReputation(rating, currentTrip[otp].driverAddr, currentTrip[otp].customerAddr);\n            currentTrip[otp].customerEnded = true;\n        }\n        // Driver has ended the trip from his/her side\n        else{\n            currentTrip[otp].driverEnded = true;\n        }\n\n        // After both have ended the trip, transfer money for trip and update the number of\n        // unique drivers for the customer\n        \n        if( currentTrip[otp].driverEnded &&  currentTrip[otp].customerEnded){\n            \n            currentTrip[otp].price = getPrice(currentTrip[otp].startTime, currentTrip[otp].endTime);\n            currentTrip[otp].driverAddr.transfer(currentTrip[otp].price);\n            currentTrip[otp].customerAddr.transfer(customers[currentTrip[otp].customerAddr].paid - currentTrip[otp].price);\n            customers[currentTrip[otp].customerAddr].paid = 0;\n            currentTrip[otp].endTime = now;\n            updateUniqueDrivers(currentTrip[otp].customerAddr, currentTrip[otp].driverAddr);\n        }\n    }\n    \n    // Function to update the list of drivers the customer has ridden with\n    function updateUniqueDrivers (address customer, address driver) internal{\n        // If the customer has already ridden with the driver do nothing\n        if(customers[customer].uniqueDriversMap[driver] == true){\n            return;\n        }\n        \n        // Else update the mapping and increment the unique driver count\n        customers[customer].uniqueDriversMap[driver] = true;\n        customers[customer].nUniqueDrivers++;\n    }\n    \n    // Function to update the list of drivers the customer has ridden with\n    function updateReputation (uint rating, address customer, address driver) internal{\n        require(rating <= 5 && rating > 0, \"Invalid Rating\");\n        uint weight = customers[customer].nUniqueDrivers / nDrivers;\n        drivers[driver].reputation += rating * weight;\n    }\n    \n    // Function to cancel trip (either by the customer or driver)\n    \n    function cancelTrip(uint otp) public{\n        require(currentTrip[otp].customerAddr == msg.sender || currentTrip[otp].driverAddr == msg.sender, \"Unauthorised to cancel trip\");\n        \n        currentTrip[otp].endTime = now;\n        \n        // If the customer cancels the trip midway, the driver gets paid for whatever\n        // distance he has driven\n        \n        if(msg.sender == currentTrip[otp].customerAddr){\n            currentTrip[otp].price = getPrice(currentTrip[otp].startTime, currentTrip[otp].endTime);\n        }\n        \n        // If the driver ends the trip, he gets no money from the trip\n        \n        else{\n            currentTrip[otp].price = 0;\n        }\n        \n        // Money transfer for the trip\n        currentTrip[otp].driverAddr.transfer(currentTrip[otp].price);\n        currentTrip[otp].customerAddr.transfer(customers[currentTrip[otp].customerAddr].paid - currentTrip[otp].price);\n        \n        // Ending trip from both sides\n        currentTrip[otp].customerEnded = true;\n        currentTrip[otp].driverEnded = true;\n    }\n\n    // An empty payable function to make the contract payabl\n    function () external payable{\n    }\n}",
  "sourcePath": "/home/atrophy/Desktop/M20/Blockchain/dCabsProofOfConcept/contracts/DCabs.sol",
  "compiler": {
    "name": "solc",
    "version": "0.5.16+commit.9c3226ce.Emscripten.clang"
  },
  "schemaVersion": "3.2.4",
  "updatedAt": "2020-11-23T13:02:01.463Z",
  "devdoc": {
    "methods": {}
  },
  "userdoc": {
    "methods": {}
  }
}